:020000040000FA
:020000000D28C9
:08000800A000030EA100210E6F
:100010008300A00E200E0900080083160030850022
:100020009F010330810000308B00FF23900083127A
:100030000730990085191A28723081000B11851D2F
:100040001F280B1D1A280630A20085192528BB3051
:1000500081000B11851D2A28E0308102031C312804
:1000600034282313A30C37282317A30C3728A20303
:10007000031D25282308A4000A30A402031C5128CC
:1000800005148514051505161930A20085160630CD
:1000900081000B110B1D4A28A203031D472885125E
:1000A0001A282308A4000930A402031D5C280510A7
:1000B0008510051105121A280130A307231C6C288E
:1000C0006A28A31C70286E28231D74287228A31D7B
:1000D000782876280514612805106128851464287D
:1000E00085106428051567280511672805161A2844
:0600F00005121A281A286F
:02400E00843FED
:00000001FF
